:100000000C944B020C9492020C9492020C94920267
:100010000C9492020C9492020C9492020C94920210
:100020000C9492020C9492020C944E240C94202571
:100030000C948F190C9492020C9492020C949202DC
:100040000C9492020C9492020C9492020C949202E0
:100050000C9492020C94F7190C9492020C94920254
:100060000C9492020C9492020C9492020C949202C0
:100070000C9492020C9492020C9492020C949202B0
:100080000C9492020C9492020C9492020C949202A0
:100090000C9492020C9492020C9492020C94920290
:1000A0000C9492020C9492020C94920260036203EC
:1000B0006403660368036A036C036E0378037A03C0
:1000C0007C037E03800382038403860388039403F6
:1000D000DA0FDA0F0C100C104A10981198119811C1
:1000E0006A10981117111711881198119811911110
:1000F0002411241124112411241124112411241158
:100100002411241124112411241124112411241147
:10011000351143114A1151115B112312231235126B
:1001200035122C12351235123512231223123112C8
:100130003512351231128D25B425A626B425A626F2
:1001400000262326A6267926882607634236B79BF3
:10015000D8A71A39685618AEBAAB558C1D3CB7CC27
:100160005763BD6DEDFD753EF6177231BF0000009F
:10017000803F08000000BE922449123EABAAAA2A82
:10018000BECDCCCC4C3E00000080BEABAAAAAA3E9D
:1001900000000000BF000000803F000000000008D9
:1001A0004178D3BB4387D1133D190E3CC3BD428276
:1001B000AD2B3E68EC8276BED98FE1A93E4C80EF34
:1001C000FFBE01C4FF7F3F000000000029001400B3
:1001D0001A000800150017004A004B001C00180008
:1001E0000C00120013002A002B0004001600070068
:1001F00009000A004D004E000B000D000E000F001C
:1002000034002800E1001D001B0006001900050055
:100210004C00460011001000360037003800E500A1
:10022000E000E300E20039002C002C0065000041F2
:100230002C002C005000520051004F0029001E00DD
:100240001F0020002100220023002400250026009A
:1002500027002D002E002A002B003A003B003C0016
:100260003D003E003F00400041004200430044008A
:1002700045002800E1000000000000000000000030
:1002800000000000000000004C004D004E00E500A2
:10029000E00000000000000000002C002C00010025
:1002A0002C0000005000520051004F0000000000E0
:1002B000000000000000000000000000000000003E
:1002C000000000000000000000000000000000002E
:1002D000000000000000000000000000000000001E
:1002E000000000000000000000000000000000000E
:1002F00000000000000000000000000000000000FE
:1003000000000000000000000000000000000000ED
:1003100000000100000000000000000004033000A5
:1003200000002203540068006500200045004300DF
:100330004F0020004B006500790062006F006100F3
:10034000720064000000220342006900730068002C
:100350006F00700020004B006500790062006F00A4
:1003600061007200640073000000040309040902C4
:100370009F00040100A0FA0904000001030101002C
:100380000921110100012240000705810308000A2C
:1003900009040100010300000009211101000122EC
:1003A00036000705820320000A080B020201010043
:1003B00000090402000001010000092401000109F4
:1003C00000010309040300020103000007240100E7
:1003D0000141000624020101000624020202000974
:1003E00024030103010201000924030204010101A5
:1003F000000905040240000500000525010101096E
:1004000005830240000500000525010103120110CB
:100410000100000008371306600200010203010515
:10042000010980A10185031601002603001A81003D
:100430002A8300751095018100C0050C0901A101F6
:100440008504160100269C021A01002A9C027510E0
:1004500095018100C005010906A101050719E029E0
:10046000E715002501950875018102950175088140
:100470000105081901290595057501910295017578
:100480000391010507190029FF150026FF009506B5
:1004900075088100C00011241FBECFEFDAE0DEBF77
:1004A000CDBF04B603FE27C08091BE059091BF0565
:1004B000A091C005B091C1058730904BA740B04BCB
:1004C000D1F41092BE051092BF051092C005109293
:1004D000C10514BE84B7877F84BF0FB6F894A89572
:1004E00080916000886180936000109260000FBE70
:1004F000E0E0F8E3099513E0A0E0B1E0E2EBF5E518
:1005000002C005900D92A43AB107D9F725E0A4EAFC
:10051000B3E001C01D92AE3BB207E1F70E9421217A
:100520000C94D72A0C94000081E0089581E008958E
:100530000C9496021F93CF93DF9300D000D01F92AC
:10054000CDB7DEB749835A832091370489819A81D8
:10055000211112C0662349F00E944817182F682FF6
:1005600089819A810E94ED1603C00E941C17182FE2
:1005700069817A81812F04C00E94481769817A813C
:100580000F900F900F900F900F90DF91CF911F91D0
:100590000C941D04FC01408151816281738184812E
:1005A0000C949A020E947818811102C00E94FB18D4
:1005B0000E94A9080C948F060E94510A0C9492067E
:1005C00008950C94E0020C94E1020895CF93DF9318
:1005D0000E9413120E94160A0E94C119EC0140E009
:1005E00063E070E080E391E00E9439080E94E50238
:1005F000CE010E94CD198A3F910538F48FE99FE022
:100600000197F1F700C00000F3CF0E94C60887E70A
:1006100097E79093010880930008DF91CF910C94A5
:100620001D1A0F931F93CF93DF938C010E94CA0270
:10063000EC01B8010E949802882309F4F4C0B801C3
:10064000CE010E94EE07882309F4EDC0B801CE0167
:100650000E94B40A882309F4E6C0B801CE010E94C2
:10066000670C882309F4DFC0C531FCE5DF0708F01B
:100670008CC0C2308CE5D80708F466C0F8018281CE
:10068000882309F468C00E947818811102C00E9472
:10069000FB180E948B1890E09093C3048093C204CF
:1006A000FE01E350FC45E231F10530F4EA5AFF4F18
:1006B0008091C2040C948F2A8091C20481603BC057
:1006C000826039C0846037C0886035C0806133C0C3
:1006D000806231C080642FC080682DC084608860D3
:1006E0008093C20440E064E070E080E091E019C0D3
:1006F0008E7F21C08D7F1FC08B7F1DC0877F1BC059
:100700008F7E19C08F7D17C08F7B15C08F7713C068
:100710008B7F877F8093C20440E062E070E080E2DC
:1007200091E00E94390809C087FB222720F991E057
:10073000922790FB87F98093C2048091C2040E94A3
:100740008F180E9413126FC0C115ECE5DE0751F03F
:10075000C130DC4579F0C801DF91CF911F910F9135
:100760000C949402F8018281882309F45CC00E94F1
:10077000E60259C0F8018281882309F454C08091AF
:10078000A80481608093A8044EC0CC3D8CE5D807B6
:1007900039F4F8018281882309F445C080E00DC056
:1007A000CD3DECE5DE0760F0CD3D8CE5D80791F559
:1007B000F80182818823B9F182E00E94C62133C00A
:1007C000C631DC4541F60E94C817282FF801828106
:1007D0004091470350914803882379F02A7A91E0A9
:1007E00009F490E09093A403911102C069E201C062
:1007F00065E3CA010E942F190AC08091A4038111E8
:1008000002C069E201C065E3CA010E9431190E9479
:10081000141809C0CE3DDC4509F09DCFF801828156
:1008200081110E94FB1880E0DF91CF911F910F9101
:10083000089580E090E0089508959EE0799FF0018A
:10084000112498E3899FE00DF11D1124E60FF11D9D
:10085000EE0FFF1FE453FE4F859194910895880F8A
:10086000991FFC01E45EFC4F859194910895CF930C
:10087000DF930E941D040E94EE05EC01811520E526
:100880009207F0F5811530E4930708F024C1883E03
:10089000910500F5803E910508F09CC1883A9105CC
:1008A00070F4853A910508F09FC08130910509F4F4
:1008B00091C108F442C1049708F08CC13EC18F3B3E
:1008C000910508F49CC0803C910508F436C1805C19
:1008D0009109F4C0811540E2940758F4C11581E0F4
:1008E000D80708F077C1C03FD10508F426C1D0650C
:1008F00071C1811520E3920708F0E4C09F70DEC04B
:10090000811535E5930708F044C0811544E5940747
:1009100008F0F8C0C11582E5D80708F5C11521E532
:10092000D20708F0DBC08C2F837021E030E002C0DA
:10093000220F331F8A95E2F73C68CE0174E096954A
:1009400087957A95E1F78370382BCF70C695C69559
:1009500080E2C89FE0011124C22BD32B3BC12C2F76
:1009600026952695CE0183709927C115D34508F0A9
:10097000BAC040E2249F90011124C1E0D0E002C03F
:10098000CC0FDD1F8A95E2F72C2B3D2BE901DC68AB
:1009900021C1811549E59407A0F4C11588E5D80760
:1009A00008F0B5C0C11526E5D20708F0C6C08C2FE7
:1009B0000E946B068F71C82FD0E0DC2FCC27D0624D
:1009C00009C181153AE5930708F4A6C09056811530
:1009D000904208F0B2C08D2F8F710E946B06DD2708
:1009E000D0628F71D82BF6C0853A910509F4A8C062
:1009F000863A910509F0A7C0C2E8D0E4EBC0883A76
:100A0000910509F4A3C0893A910509F4A2C08A3A74
:100A1000910509F4A1C08B3A910509F4A0C08C3A64
:100A2000910509F49FC08B3B910509F49EC08C3B56
:100A3000910509F49DC08D3A910509F49CC0803B55
:100A4000910509F49BC08E3A910509F49AC08F3A3A
:100A5000910509F499C0813B910509F498C0823B46
:100A6000910509F497C0833B910509F496C0843B36
:100A7000910509F495C0853B910509F494C0863B26
:100A8000910509F493C0873B910509F492C0883B16
:100A9000910509F491C0893B910509F490C08D3B03
:100AA000910509F48FC08E3B910509F48EC08A3BF5
:100AB000910509F48DC0C0E0D4E48CC00E942F04DD
:100AC000EC0188C09927D3FF03C0EC01D86C82C029
:100AD000EC01D06C7FC0DF70D06A7CC0DC2FCC27EB
:100AE000C16FD06A77C040E2249F90011124C1E019
:100AF000D0E002C0CC0FDD1F8A95E2F7C22BD32BCA
:100B0000DA6868C0D82FCC27C46FD06A63C0DC2FE6
:100B1000CC27C06FD06A5EC08F700E946B0694E0D5
:100B2000D695C7959A95E1F7CF70D0E0DC2FCC270A
:100B3000D06A8F70806EC82B4DC0C0E0D0E04AC034
:100B4000C1E8D0E447C0C3E8D0E444C0C2EED4E476
:100B500041C0C9EED4E43EC0CAEED4E43BC0C5EB0C
:100B6000D4E438C0C6EBD4E435C0C3EBD4E432C01F
:100B7000C4EBD4E42FC0C7EBD4E42CC0CCECD4E459
:100B800029C0CDECD4E426C0C3E8D5E423C0CAE82C
:100B9000D5E420C0C2E9D5E41DC0C4E9D5E41AC03B
:100BA000C1E2D6E417C0C3E2D6E414C0C4E2D6E47E
:100BB00011C0C5E2D6E40EC0C6E2D6E40BC0C7E25F
:100BC000D6E408C0CFE6D4E405C0C0E7D4E402C050
:100BD000CAE2D6E4CE01DF91CF9108958238910523
:100BE00049F1B0F48133910509F458C048F48932D1
:100BF000910509F44EC08A32910509F454C0089554
:100C00008533910509F440C08933910599F0089521
:100C1000833E910529F138F4803E910591F0823EA2
:100C20009105A1F00895863E9105F9F0873E910562
:100C300031F108952091C20420FD3AC021FD38C051
:100C400008958091C20480FD35C032C08091C204F5
:100C500082FF32C08091C20484FD30C083EE39C06F
:100C60008091C20482FD28C0F5CF8091C20483FF29
:100C700027C08091C20484FD21C087EE2AC08091E4
:100C8000C20483FD1DC0F5CF8091C20485FD1AC04A
:100C90001BC08091C20485FD17C014C08091C2049E
:100CA00086FD14C015C08091C20486FD11C00EC01F
:100CB00080EE0FC089E30DC082EE0BC080E009C05A
:100CC00086EE07C089E205C085E303C08AE201C061
:100CD00081E390E008959091C20492FF0DC0282F07
:100CE0002871283019F4877F846006C0282F24716A
:100CF000243011F48B7F886093FF0DC0282F28715A
:100D0000283119F4877E846106C0282F247124318C
:100D100011F48B7E886194FD877E089508950C946C
:100D20008E0608950C949106E82FF0E0EE0FFF1F59
:100D3000EB55FC4F8081918108950895E1E9F3E03E
:100D400041E050E024E02E0F9191A92FA295AF70C1
:100D5000B0E091963C9191979F70BA0102C0660FE6
:100D6000771F9A95E2F7CB018095832391968C9318
:100D70002E13EACFA3E8B3E041E050E02EE02A0FC3
:100D80008D91E82FE295EF70F0E031A18F70BA01FC
:100D900002C0660F771F8A95E2F7CB01962F9095D8
:100DA000932391A392A1892B82A32A13E9CF1092B6
:100DB000AE031092AD031092A6031092A5031092F9
:100DC000B0031092AF031092A8031092A7031092E1
:100DD000B2031092B1031092AA031092A9031092C9
:100DE000B4031092B3031092AC031092AB0384E0EF
:100DF0000E9494070C94D2024F925F927F928F923E
:100E00009F92AF92BF92CF92DF92EF92FF920F9399
:100E10001F93CF93DF9321E9422E23E0522EADEAB8
:100E2000B3E020E001E010E05D018D909C9011970F
:100E300011961C921E92E20189912E01E82FE295F3
:100E4000EF70F0E031A18F70A80102C0440F551F70
:100E50008A95E2F7CA01342B31A342A1382F30958D
:100E6000432342A350EA5A95F1F793E8C92E93E041
:100E7000D92E40E050E0E60179906E01672D629531
:100E80006F7070E0EB01E8A06D917C911197F12CEF
:100E9000D72DDF7002C0F594E794DA95E2F7E0FC15
:100EA00008C07801042E02C0EE0CFF1C0A94E2F781
:100EB00002C0E12CF12C6E297F2911967C936E9350
:100EC0004F5F5F4F4E305105B1F691A1392331A3E9
:100ED00092A1892B82A3129681E0F5014081518174
:100EE0008416950609F480E0282BF3E0A53BBF07A4
:100EF00009F09ACF44E065EA73E08DEA93E00E943E
:100F000095070E94DC0281E0DF91CF911F910F9144
:100F1000FF90EF90DF90CF90BF90AF909F908F9019
:100F20007F905F904F9008950895FF920F931F93C5
:100F3000CF93DF93F82E092F162FD72FC42F2223FC
:100F400049F081E08093B7030E94C1199093B603E2
:100F50008093B5038091B7038823D9F08091B503BE
:100F60009091B6030E94CD19069798F0EF2DF02FBF
:100F7000A12FBD2F80E090E04C2F50E08417950703
:100F800034F4219131912D933D930196F7CF109236
:100F9000B703DF91CF911F910F91FF900895682FB4
:100FA00070E065547109072E000C880B990B0E94A4
:100FB000532720E030E040E451E40E94DF269B010B
:100FC000AC0160E070E080E090E40E94752820E0D1
:100FD00030E04CED53E40E9408280895FB018D3168
:100FE0002CE5920731F482818823A1F10E94E30964
:100FF0002FC08E312CE5920731F48281882351F184
:101000000E94F30925C08F312CE5920741F48281BB
:10101000882301F10E94DF098111F2CFE7CF8A32E4
:101020002CE5920731F482818823A1F00E940C0AFA
:1010300008C08B329C4571F48281882359F00E944C
:101040000F0A40E064E070E088E491E00E94390813
:1010500080E0089581E008950E94CF074FE050E0BE
:101060000C948F090E94CF070C94F7080C94C608C3
:101070000895CF92DF92EF92FF92CF93DF93EC012E
:101080006B01F42E8091BA03811102C00E94A9085D
:101090008091BA0480FF56C08091C70381110E94DD
:1010A000C60881E08093C803D093B904C093B80404
:1010B000D092B704C092B604F092BD041092C90356
:1010C0001092CA031092CB031092CC031092BC036F
:1010D0001092BB0388819981AA81BB818093C3034D
:1010E0009093C403A093C503B093C60320E030E0FF
:1010F00040E85EE36C817D818E819F810E9408289B
:101100006B017C018091A001682F70E080E090E08D
:101110000E94512720E030E048EC52E40E94DF2694
:101120009B01AC01C701B6010E9408286093BF0370
:101130007093C0038093C1039093C2031092BE03C7
:101140001092BD03DF91CF91FF90EF90DF90CF9091
:1011500008950E947818811102C00E94FB180E9415
:1011600094188093BA048091BA03811103C081E07E
:101170008093BA038091BA0480FF07C040E063E027
:1011800070E088E891E00C94390808958091BA03E2
:10119000811102C00E94A90810920A041092090449
:1011A0001092C8031092C703109203041092040413
:1011B00010920504109206041092FF03109200048E
:1011C00010920104109202041092FE031092FD038B
:1011D000EDEDF3E0ADECB3E01192119211921192AA
:1011E0001D921D9283E0ED3FF807B1F70895CF926D
:1011F000DF92EF92FF920F931F93CF93DF93209193
:10120000C703222309F482C06B017C018091BA03D9
:10121000811102C00E94A9080DEF13E0C7E0D0E0E1
:10122000A7019601F80192918291729162918F01CA
:101230000E94DA26811131C0FE01EE0FFF1FEE0F72
:10124000FF1FE352FC4F1082118212821382DE01D3
:10125000AA0FBB1FA353BC4F11961C921E92C730FE
:10126000D105E9F0219644815581668177814083DB
:1012700051836283738314821582168217821296B9
:101280008D919C91139711969C938E9313961C921B
:101290001E92129734961296E2CF219708F680910B
:1012A000090490910A04019797FD05C090930A04E0
:1012B0008093090404C010920A04109209048091DA
:1012C000090490910A04209107043091080428171A
:1012D000390724F01092080410920704892BB1F406
:1012E0001092030410920404109205041092060454
:1012F0001092FF0310920004109201041092020455
:101300001092FE031092FD031092C703DF91CF915C
:101310001F910F91FF90EF90DF90CF900895CF92A3
:10132000DF92EF92FF92CF93DF936B017C01EA0192
:101330008091BA03811102C00E94A9088091BA0469
:1013400080FF36C08091090490910A04089784F5C3
:101350008091C80381110E94C60881E08093C70371
:101360001092B9031092B80320E030E0A901C70140
:10137000B6010E9403281816DCF4809109049091AC
:101380000A04FC01EE0FFF1FEE0FFF1FE352FC4F9C
:10139000C082D182E282F382FC01EE0FFF1FE35391
:1013A000FC4FD183C083019690930A048093090473
:1013B000DF91CF91FF90EF90DF90CF9008958091D3
:1013C000BA04817008958091BA0481608093BA0450
:1013D0000E9498180E94380840E062E070E088E7B8
:1013E00091E00C94390840E062E070E088E691E01A
:1013F0000E9439082FEF81EE94E021508040904008
:10140000E1F700C000000E94C6088091BA048E7FF8
:101410008093BA040C94981810920B0408951092BB
:101420000B04089584EC94E00C945B1D80912404DB
:1014300081110C943608089521E08F3F910508F042
:1014400020E0822F08950C941C0A0E94160A109224
:10145000240440E068E070E081E292E00C943908F6
:101460001092230440E068E070E081EA91E00C947F
:1014700039080E94160A2091430330E02F5F3F4F46
:10148000237033272093430348E2429FC001439FC8
:10149000900D112440E065E070E08F559D4F0C9455
:1014A0003908CF9380912004882309F441C08091AA
:1014B0000C0490910D04009781F40E94C11990933F
:1014C0000D0480930C0420910E0430E021153105A9
:1014D00071F480910F0490E00BC00E94CD1920910F
:1014E0004103309142032817390738F321C0C9015D
:1014F0000197FC01E05FFB4F8081F901E05FFB4F4A
:10150000C0819091240491110E943208809124049A
:10151000882319F08C2F0E942C0880910E0490E0F3
:10152000019660910F0470E00E947B2A80930E0464
:10153000CF910895089581E08093240440E068E00D
:1015400070E081E692E00E9439080C949A0A0895AE
:1015500081E08093230440E068E070E081EE91E058
:101560000E9439080C94A70AEF92FF921F93CF9321
:10157000DF93CDB7DEB7A3970FB6F894DEBF0FBEEB
:10158000CDBF7C0186322CE5920741F4FB018281BC
:10159000882309F448C00E949B0AA2C08732FCE558
:1015A0009F0739F4FB0182818823E9F10E94250A13
:1015B00097C08832FCE59F0749F4FB0182818823AC
:1015C00091F1809124048111F1CFE5CF8C32FCE5BB
:1015D0009F0739F4FB018281882329F10E94A80A20
:1015E0007FC08D32FCE59F0739F4FB01828188239F
:1015F000D1F00E94300A74C08E32FCE59F0749F496
:10160000FB018281882379F0809123048111F1CF3D
:10161000E5CF89329C4539F4FB018281882319F09A
:101620000E94390A5DC040912404411105C0809197
:101630002304882309F4D1C0FB015281552309F406
:1016400051C0F0EEEF16F10461F40E94160A81E039
:1016500080932204109221041092200410920F040F
:101660003FC022EEE216F10471F40E94160A809146
:101670002204882319F081E080932104109222042F
:10168000109220042DC033EEE316F10491F4809102
:101690002104882339F10E94160A1092220481E065
:1016A0008093200410920E0410920D0410920C04EA
:1016B00017C082E5E816F10431F48091410390915E
:1016C00042030A9709C0E1E5EE16F10459F480914E
:1016D0004103909142030A96909342038093410301
:1016E00080E07CC08091430310914603811108C0C3
:1016F000FB012081120F135080914403180F43C047
:10170000813091F4FB012081120F105E209144037F
:10171000120F818124E030E0281B3109822F880FCD
:10172000880F280F120F38C0823071F4FB0120811E
:10173000120F105E90914403190F218184E090E014
:10174000821B9109F7E025C0833031F583E2E0E6A2
:10175000F3E0DE01119601900D928A95E1F71350A6
:10176000FB01808121E030E02C0F3D1F280F311D4F
:10177000C9012091440330914503FC01E20FF31F9E
:101780002081120FFB01218184E090E0821B9109EE
:10179000FCE08F9F100D11245523A1F0442319F074
:1017A000812F0E942C0880912204882381F080914F
:1017B0000F04E82FF0E0E05FFB4F10838F5F809312
:1017C0000F0405C0442319F0812F0E943208C7017D
:1017D0000E94230A91E0892701C081E0A3960FB6F9
:1017E000F894DEBF0FBECDBFDF91CF911F91FF9068
:1017F000EF9008950F931F93CF93DF93C62FD42FAD
:10180000022FFC0182818823C9F0609327040E9483
:10181000C119909326048093250480E28C0F8830B0
:1018200008F050C0C77081E001C0880FCA95EAF780
:10183000DF91CF911F910F910C94960F1091270477
:10184000161330C080912504909126040E94CD1972
:10185000883C910538F5C0E2CD0F1D17B9F080E244
:10186000810F883040F4177081E001C0880F1A950D
:10187000EAF70E949D0FC83048F481E09D2F9770D1
:1018800001C0880F9A95EAF70E94960F802F0E9458
:101890008E0FC830B8F4D77081E001C0880FDA9598
:1018A000EAF70AC080E28C0F883060F4C77081E0EC
:1018B00001C0880FCA95EAF7DF91CF911F910F9170
:1018C0000C949D0FDF91CF911F910F9108959C0172
:1018D000CB01203F4CE53407F9F078F4283DFCE5D6
:1018E0003F07B9F0293D4CE5340711F1273D3C4550
:1018F00031F526E241EE61EE1EC0223FFCE53F07D6
:1019000099F070F0233F3C45D1F427E245EE66EEB6
:1019100012C027E245EE0EC026E241EE60EE0BC09B
:1019200027E245EE64EE07C026E241EE62EE03C018
:1019300028E241E065EE0E94FA0B80E00895FC0188
:101940008281882319F010922704089581E0089578
:1019500090932D0480932C040895E0912C04F09131
:101960002D04309721F00190F081E02D099480E062
:101970000895E0912C04F0912D04309721F002801D
:10198000F381E02D0994089520912A0430912B04CD
:101990008217930771F090932B0480932A04E091AF
:1019A0002C04F0912D04309721F00680F781E02D72
:1019B00009940895209128043091290482179307EF
:1019C00071F09093290480932804E0912C04F09105
:1019D0002D04309721F00084F185E02D09940895BD
:1019E00085B7806885BF85B7806885BF08950895ED
:1019F00008950C94F80C08950C94FB0C0E94F00CC4
:101A00000E94F70C0C94F90C81E008950E94B8191B
:101A10000E949E060E942E1A0C94FC0C4F925F921C
:101A20007F928F929F92AF92BF92CF92DF92EF926E
:101A3000FF920F931F93CF93DF93CDB7DEB72A9713
:101A40000FB6F894DEBF0FBECDBF0E94FC060E9409
:101A5000040D811111C08FEF89838A831B820E943C
:101A6000C1198160782F9D838C8349815A816B8154
:101A70008D810E94CC0D57C09FE2C92E94E0D92ED3
:101A800000E010E0AA24A394B12C702E802F0E94B5
:101A900094064C01F601419051906F014826592659
:101AA0004114510431F40F5F1F4F0430110569F7E1
:101AB000D2CF8091A80481FD0E949D0620E030E0F5
:101AC0007501022E02C0EE0CFF1C0A94E2F7C7015A
:101AD00084219521892B09F12E837F828E209F20DE
:101AE00091E0892809F490E098870E94C1198160EB
:101AF000782F9A8789874E815F8168858A850E94C1
:101B0000CC0D000F111FF801E15DFB4F8081918129
:101B1000E826F926F182E08206C02F5F3F4F2E3083
:101B2000310571F6C0CF0E94120A10912E040E9456
:101B3000AD0C1817D9F00E94AD0C80932E042A9694
:101B40000FB6F894DEBF0FBECDBFDF91CF911F91CE
:101B50000F91FF90EF90DF90CF90BF90AF909F904C
:101B60008F907F905F904F900C94E3022A960FB66F
:101B7000F894DEBF0FBECDBFDF91CF911F910F91C3
:101B8000FF90EF90DF90CF90BF90AF909F908F909D
:101B90007F905F904F900895CF93DF93CDB7DEB7DE
:101BA0002B970FB6F894DEBF0FBECDBF4F8358877B
:101BB00069877A878B87DE01119686E0FD01119295
:101BC0008A95E9F785E0FE01379601900D928A9596
:101BD000E1F749815A816B817C818D819E810E94D0
:101BE000BD142B960FB6F894DEBF0FBECDBFDF91AC
:101BF000CF910895FC01808191810E9489170895F9
:101C0000CF93DF931F92CDB7DEB7882309F423C1AA
:101C1000682F8238C1F40E94AD0C81FD1CC169E3BC
:101C200080914703909148030E942F190E94141835
:101C30002FEF81EE94E0215080409040E1F700C00A
:101C4000000069E319C0833811F50E94AD0C80FDD6
:101C500002C163E580914703909148030E942F19C8
:101C60000E9414182FEF81EE94E0215080409040A4
:101C7000E1F700C0000063E58091470390914803BD
:101C80000E9431190F90DF91CF910C941418843871
:101C9000C1F40E94AD0C82FDDEC067E48091470371
:101CA000909148030E942F190E9414182FEF81EE83
:101CB00094E0215080409040E1F700C0000067E4CC
:101CC000DBCF8CEF860F813A70F4862F69830E94F8
:101CD000FB1A69818111BFC080914703909148032D
:101CE0000E942F19CFCF80E2860F883048F46770AA
:101CF00081E001C0880F6A95EAF70E94CB17C2CF36
:101D00008BE5860F833088F4653A29F0663A31F026
:101D100083E890E005C081E890E002C082E890E0AE
:101D20000F90DF91CF910C94C40C88E5860F87311A
:101D300008F091C0683A09F445C0693A09F445C011
:101D40006A3A09F445C06B3A09F445C06C3A09F4A3
:101D500045C06B3B09F445C06C3B09F445C06D3A86
:101D600009F445C0603B09F445C06E3A09F445C02A
:101D70006F3A09F445C0613B09F445C0623B09F480
:101D800045C0633B09F445C0643B09F445C0653B6D
:101D900009F445C0663B09F445C0673B09F445C0FA
:101DA000683B09F445C0693B09F445C06D3B09F443
:101DB00045C06E3B09F445C06A3B09F445C080E06C
:101DC00090E044C082EE90E041C089EE90E03EC0D9
:101DD0008AEE90E03BC085EB90E038C086EB90E067
:101DE00035C083EB90E032C084EB90E02FC087EBEE
:101DF00090E02CC08CEC90E029C08DEC90E026C0E7
:101E000083E891E023C08AE891E020C082E991E074
:101E10001DC084E991E01AC081E292E017C083E21C
:101E200092E014C084E292E011C085E292E00EC01C
:101E300086E292E00BC087E292E008C08FE690E075
:101E400005C080E790E002C08AE292E00F90DF9147
:101E5000CF910C94DA0C0F90DF91CF9108958823E5
:101E600009F45BC0682F823879F40E94AD0C81FFC1
:101E700054C069E380914703909148030E942F1951
:101E80000E94141869E310C08338B1F40E94AD0CAD
:101E900080FF43C063E580914703909148030E940F
:101EA0002F190E94141863E580914703909148030D
:101EB0000E9431190C941418843879F40E94AD0CE6
:101EC00082FF2BC067E480914703909148030E94F2
:101ED0002F190E94141867E4E7CF8CEF860F813A20
:101EE00018F380E2860F883048F4677081E001C003
:101EF000880F6A95EAF70E94D117DCCF8BE5860F31
:101F0000833020F480E090E00C94C40C685A673170
:101F100020F480E090E00C94DA0C0895CF93C82F61
:101F20000E94000E8C2FCF910C942F0F882321F04C
:101F30000E94CB170C9414180895882321F00E9456
:101F4000D1170C94141808954F925F926F927F925C
:101F5000BF92CF92DF92EF92FF920F931F93CF9396
:101F6000DF937C01D62FC72FFC01058102950F70EE
:101F7000128111110E94E8170E94C117882379F07D
:101F8000112369F080E28D0F883048F082E00E94D2
:101F90005F180E94C11791E0B82EB92601C0B12C7C
:101FA000CC2EC2948FE0C822D12CF601E859FF4F05
:101FB0000C948F2A8C2F807FCF70882311F0C295CC
:101FC000C07F112399F0CC2309F48DC180E28D0FDD
:101FD000883010F0D11104C08C2F0E94CB1703C0A1
:101FE0008C2F0E94DB170E9414187DC18D2F0E9438
:101FF0002F0FCC2309F49CC180E28D0F883010F0A4
:10200000D11104C08C2F0E94D11703C08C2F0E94C5
:10201000E1170E9414188CC18C2F807FCF70803202
:1020200011F0C295C07FDD2319F0D130C9F022C074
:10203000112371F0002341F0013031F40E94FB17AD
:102040008C2B0E94011874C10E94FB178C2B04C1B9
:10205000002319F0013009F46BC10E940A1818C05E
:10206000112321F0063008F063C10EC0053008F0DE
:102070005FC10EC0112351F0002331F0F7018581BB
:1020800080FF31C18F7085838C2FE6C001113CC168
:102090008C2FE8C08C2F86958695837090E00097F2
:1020A00019F0019761F044C1112321F08D2F9C2F6D
:1020B000937002C080E090E00E94C40C49C11123DB
:1020C00021F08D2F9C2F937002C080E090E00E9441
:1020D000DA0C3EC18C2F837009F050C0111134C14D
:1020E0008D2F829586958770880F880F9D2F9F7002
:1020F000492E512C612C712C082E04C0440C551C07
:10210000661C771C0A94D2F7D4FF14C00FE010E0CD
:1021100020E030E0B901A80104C0440F551F661F3C
:10212000771F8A95D2F7CB01BA016095709580959B
:10213000909503C060E070E0CB01C695C695C37072
:10214000D0E0C230D10561F0C330D10581F06429FF
:10215000752986299729219771F00E940216F4C0EB
:1021600064297529862997290E941416EDC00E94BA
:102170000216C301B2010E94F015E6C0112319F046
:102180008C2F817001C08695882309F4DDC08D2FC6
:10219000829586958770880F880F9D2F9F70492E96
:1021A000512C612C712C082E04C0440C551C661C4B
:1021B000771C0A94D2F7D4FF14C00FE010E020E09F
:1021C00030E0B901A80104C0440F551F661F771FF6
:1021D0008A95D2F7CB01BA0160957095809590955C
:1021E00003C060E070E0CB01C695C695C3704C2F6C
:1021F00050E04230510569F04330510589F06429BF
:102200007529862997294130510571F00E94C81619
:102210009BC064297529862997290E94DA1694C0E3
:102220000E94C816C301B2010E94B6168DC08D2F40
:1022300090E0FC01E05EF109E531F10508F04FC0E6
:10224000E858FF4F0C948F2ADF708C2F8F71112369
:1022500031F00E944F168D2F0E94960F69C00E9488
:1022600070168D2F0E949D0F63C0112341F0053021
:1022700008F05EC08C2F8F710E94951659C00630F1
:1022800008F056C0F7CF112339F08C2F8F710E94C0
:102290004F164EC01123C9F38C2F8F710E947016F8
:1022A00047C0112329F08C2F8F710E943A1640C02D
:1022B0000E9435163DC0112349F0CF718C2F0E942A
:1022C0004F1663E08C2F0E944A1832C081E00E94B2
:1022D0005F18023068F182E00E945F1829C0112364
:1022E00031F0002391F28D2F0E94000E21C00023B7
:1022F00099F2D93349F45FEF67EE73E051506040D3
:102300007040E1F700C000008D2F0E942F0F10C019
:102310004C2F4F706D2FC7010E9419040E94611548
:1023200017C04C2F4F706D2FC7010E941C0410C0A6
:1023300088E0C816D10441F05CF0EAE0CE1AD1087A
:10234000F2E0CF16D10420F40E94AD0C0E94E3020B
:10235000BB20F1F00E94BD1780FD1AC0F701128268
:102360000E94B7170E944F16C7010E94D6110E9403
:10237000B717DF91CF911F910F91FF90EF90DF90F2
:10238000CF90BF907F906F905F904F900C9470169D
:10239000DF91CF911F910F91FF90EF90DF90CF9041
:1023A000BF907F906F905F904F9008950F931F9311
:1023B000CF93DF93EC01888199812B813C81232B82
:1023C000B9F09F3F11F48F3F99F0CE010E941103A5
:1023D000882371F0688179818A810E9494178C0129
:1023E0000E94EC160E94ED15B801CE010E94A40FC8
:1023F000DF91CF911F910F9108950E94E8170E94DD
:10240000F8170E94141880E090E00E94C40C80E04D
:1024100090E00C94DA0C80914703909148030E945D
:1024200033190C94FD110E94D8170C940B12E92F4C
:10243000E295EF70F0E03297EE30F105B0F4E3573B
:10244000FF4F0C948F2A803F91F018F4803E68F47F
:102450000EC0843F51F40BC0803E48F0813F29F408
:1024600006C093FB882780F9089580E0089581E0F5
:1024700008950E9489170E9417120895CF93DF9341
:1024800000D000D01F92CDB7DEB70F900F900F9005
:102490000F900F90DF91CF910895CF93DF9300D0ED
:1024A00000D000D0CDB7DEB726960FB6F894DEBFC9
:1024B0000FBECDBFDF91CF9108951F93CF93DF93D0
:1024C000C091380416E080913904C81799F0D0E023
:1024D0001C9FF0011D9FF00D1124E65CFB4F408115
:1024E000518162817381848195810E944D12219670
:1024F000C770E9CFDF91CF911F91089540916A0491
:1025000050916B0460916C0470916D0480916E0425
:1025100090916F040C944D1280916F0482958F708E
:1025200009F054C080916C04882309F44FC0809155
:102530003804A091390460916A0470916B04409151
:102540006D0450916E04B6E08A1709F43FC090E024
:1025500041155105C1F17F3F11F46F3FA1F1B89FC3
:10256000F001B99FF00D1124E65CFB4F218172133D
:102570002AC02081621327C02281211124C0238117
:1025800034812417350710F421503109241B350BF1
:10259000283C3105C0F420916F042F7020612093F6
:1025A0006F0426E0289FF001299FF00D1124E15CC3
:1025B000FB4F80818F70806180838AE694E00E9467
:1025C000D6110C945D1201968770BECF0895CF92FC
:1025D000DF92EF92FF920F931F93CF93DF93CDB7CC
:1025E000DEB762970FB6F894DEBF0FBECDBF8C0189
:1025F00085E0F801DE011D9601900D928A95E1F7C4
:10260000D8014C9111965C91119712966C9112978A
:102610001396CD90DC90149730916A0470916B04FE
:1026200080916D0490916E04009709F46BC17F3F17
:1026300019F43F3F09F466C1E0906C04EE2009F400
:10264000C0C020916F04C816D90628F0F601E81B17
:10265000F90BCF0104C0809590958C0D9D1DFF2432
:10266000F394883C910578F0F12C207F09F0C6C0E6
:102670007C2DD98AC88A89890E943E128AE694E014
:102680000E94D611B1C0822F807F09F046C0751319
:1026900014C0341312C0611110C02F702061209338
:1026A0006F040E947E128AE694E00E94D611809107
:1026B0006F04D80115968C932EC0CD2819F15F3F79
:1026C00011F44F3FF9F0F62E61111CC080913804CF
:1026D0002091390436E0821709F45AC090E0389FFF
:1026E000F001399FF00D1124E65CFB4F7181571307
:1026F00006C07081471303C07281711103C0019637
:102700008770E9CFF62E662309F427C180916F0404
:10271000816080936F04F12C20C1751308C03413BD
:1027200006C0611104C080916F04D801C3C04D87F9
:102730005E878D859E856A8B0E9439126A898823FF
:10274000E1F16623D1F120916F04822F82958F7081
:1027500090E0029774F080916A0490916B049887DE
:102760008F831986DB86CA862C87CE0107960E9446
:10277000D61186E0F801AAE6B4E001900D928A95A0
:10278000E1F70E948C120E947E12FF24F394E5C0B0
:102790004D875E878D859E850E948917292F2295FA
:1027A0002F7030E0223031050CF0CBC09F7009F063
:1027B000C5C0805E883008F4D0C0C8010E94D61120
:1027C000E4CFC816D90608F453C0F601E81BF90B8C
:1027D000CF01883C910508F450C0F12C7C2DD98A9A
:1027E000C88A89890E943E12EAE6F4E086E0DF01A9
:1027F0001D928A95E9F70E947E12AFC0751314C02E
:10280000341312C0611110C080916F04F8018583E8
:10281000C8010E94D61186E0EAE6F4E0DF011D92CD
:102820008A95E9F7FE2C99C04D875E878D859E8538
:102830006A8B0E9439126A89882309F4BECF662305
:1028400009F4BBCF20916F04822F82958F7090E0A6
:1028500002970CF48ECF80916A0490916B049A8356
:1028600089831B82DD82CC822E83CE0101967FCFAD
:10287000809590958C0D9D1DACCFF62E662309F4A6
:102880009CCF75132EC034132CC020916F0420FDF3
:102890001FC0822F82958F70D9F0D80115962C9386
:1028A00015978F3049F08F5F982F9295907F822FE8
:1028B0008F70892B15968C93C8010E94D61186E0E3
:1028C000F801AAE6B4E001900D928A95E1F793CF62
:1028D00086E0F801AAE6B4E001900D928A95E1F74E
:1028E0003CC04D875E878D859E850E94391281117F
:1028F00040CF80916F04816080936F04C8010E9473
:10290000D6112BC0662309F458CF4D875E878D857D
:102910009E850E943912F82E882309F44ECF86E056
:10292000F801AAE6B4E001900D928A95E1F78AE6F3
:1029300094E00E94FA0D0E948C125DCF811139CF74
:102940000CC0243031050CF038CF9F7009F431CF22
:10295000F8019581907F09F02CCF8F2D62960FB6EC
:10296000F894DEBF0FBECDBFDF91CF911F910F91C5
:10297000FF90EF90DF90CF9008951F93CF93DF9358
:10298000CDB7DEB72C970FB6F894DEBF0FBECDBF24
:102990004F83588769877A878B879C87CE010796F4
:1029A0000E94E712882369F08F8198852A853B85EC
:1029B000232BF1F19F3F09F063C08F3F09F060C006
:1029C00037C086E0FE013796DE01119601900D9228
:1029D0008A95E1F76F817885EA85FB85309741F12B
:1029E0007F3F11F46F3F21F12091390430E0C9019C
:1029F0000196877099274091380450E08417950715
:102A000009F447C069837A83FD83EC8396E0929F43
:102A1000D001939FB00D1124A65CBB4FFE013196EF
:102A200001900D929A95E1F7809339040E945D120E
:102A300016E080913804909139048917C1F1189FEC
:102A4000C0011124865C9B4F0E94E712882379F114
:102A5000E09138041E9FF0011124E65CFB4F408199
:102A6000518162817381848195810E944D12809190
:102A7000380490E001968770992780933804D9CF65
:102A80004F81588569857A858B859C850E944D127A
:102A9000CFCF0E9413121092390410923804EAE644
:102AA000F4E086E0DF011D928A95E9F7C1CF2C960C
:102AB0000FB6F894DEBF0FBECDBFDF91CF911F914F
:102AC0000895EF92FF920F931F93CF93DF938C01A2
:102AD000892B09F46CC0F12CEE24E394E8012196D3
:102AE000F8018491843740F4843008F051C081307B
:102AF00081F0823019F15BC0853709F444C0A8F138
:102B00009CE7980F903708F052C08F770E942F0FE4
:102B100041C00E5F1F4FFE01C49180E28C0F8830D0
:102B200048F4C7708E2D01C0880FCA95EAF70E943D
:102B3000EB1714C08C2F0E94000E2DC00E5F1F4F8C
:102B4000FE01C49180E28C0F883058F4C7708E2D3E
:102B500001C0880FCA95EAF70E94F1170E94141865
:102B60001AC08C2F0E942F0F16C00E5F1F4FFE0140
:102B7000C491CC2381F08FE99FE00197F1F700C069
:102B80000000C150F6CF0E5F1F4FFE01F49003C04E
:102B90000E94000E8E018F2D882309F49FCFEFE94C
:102BA000FFE03197F1F700C000008150F5CFDF91D1
:102BB000CF911F910F91FF90EF90089508950C947D
:102BC000DE150E94DF15609397047093980480933C
:102BD000990490939A040C94FD1108950C94E115B6
:102BE0000F931F93009197041091980420919904DA
:102BF00030919A04602B712B822B932B1F910F9194
:102C00000C94E1150F931F93009197041091980471
:102C10002091990430919A04602371238223932395
:102C20001F910F910C94E1150F931F93009197043E
:102C3000109198042091990430919A04602771278B
:102C4000822793271F910F910C94E11508950C94FE
:102C500026160E9427166093930470939404809321
:102C60009504909396040C94FD1160E070E0CB0104
:102C70000C9429160F931F9341E050E060E070E040
:102C80008A019B0104C0000F111F221F331F8A9568
:102C9000D2F7C901B8011F910F910C9429160F9317
:102CA0001F9341E050E060E070E004C0440F551F06
:102CB000661F771F8A95D2F78091930490919404B0
:102CC000A0919504B09196048A019B01082B192BC1
:102CD0002A2B3B2BC901B8011F910F910C94291687
:102CE0000F931F9341E050E060E070E004C0440F98
:102CF000551F661F771F8A95D2F7409550956095AE
:102D000070958091930490919404A0919504B09152
:102D100096048A019B01082319232A233B23C90116
:102D2000B8011F910F910C9429160F931F9341E046
:102D300050E060E070E004C0440F551F661F771F2D
:102D40008A95D2F78091930490919404A091950470
:102D5000B09196048A019B01082719272A273B274F
:102D6000C901B8011F910F910C9429160F931F935D
:102D7000009193041091940420919504309196044D
:102D8000602B712B822B932B1F910F910C94291682
:102D90000F931F9300919304109194042091950434
:102DA0003091960460237123822393231F910F9106
:102DB0000C9429160F931F9300919304109194047F
:102DC00020919504309196046027712782279327DC
:102DD0001F910F910C94291608952EE0929F800D5B
:102DE0001124A82FA695A695A695877051E001C03D
:102DF000550F8A95EAF785E0A89FD001112420E0BD
:102E000030E070E0F901EA0FFB1FE059FB4F408111
:102E1000CB01022E02C0969587950A94E2F7817045
:102E20009927819584278523842780832F5F3F4FAF
:102E30002530310539F708952EE0929F800D112439
:102E4000682F669566956695982F977085E0689FC0
:102E5000B001112440E050E080E0FA01E60FF71FD6
:102E6000E059FB4F208130E0092E02C036952795AE
:102E70000A94E2F721703327042E01C0220F0A942E
:102E8000EAF7822B4F5F5F4F4530510531F70895C8
:102E9000BF92CF92DF92EF92FF920F931F93CF9347
:102EA000DF938C01C0909704D0909804E09099042F
:102EB000F0909A048091930490919404A0919504C9
:102EC000B0919604C82AD92AEA2AFB2ACFE1D0E099
:102ED000D701C6010C2E04C0B695A7959795879586
:102EE0000A94D2F780FF07C0BC2EB8018C2F0E9435
:102EF0003704019719F4219758F7B12C8B2DDF91E6
:102F0000CF911F910F91FF90EF90DF90CF90BF90E6
:102F10000895CF93DF93EC010E944817BE010E94F1
:102F20003704DF91CF9108951F93CF93DF93EB0187
:102F300090913704992321F0CB010E94891713C087
:102F4000882349F0CB010E944817182F682FCE0123
:102F50000E94ED1604C0CB010E941C17182FBE0161
:102F6000812F0E943704DF91CF911F9108958091A6
:102F70009B04859585958595089580919B04877020
:102F8000089590919B04977081E009F480E0089582
:102F90008091A70408959091A704892B8093A7049A
:102FA000089580959091A70489238093A70408959C
:102FB0001092A70408959091A604892B8093A604EB
:102FC000089580959091A60489238093A60408957E
:102FD0001092A60408959091A504892B8093A504CE
:102FE000089580959091A50489238093A504089560
:102FF0001092A504089580919C04089508950C945E
:10300000FE1790919C04981721F080939C040C94D7
:10301000FF17089580919C04882329F010929C0446
:1030200080E00C94FF170895E0914703F091480366
:103030008091A7048083E0914703F0914803908139
:103040008091A604892B8083E0914703F091480387
:1030500090818091A504892B808380919C04882392
:1030600081F0E0914703F09148039081892B8083A0
:1030700080914703909148030E94FD1881110E949E
:103080000A1880914703909148030C94B90C089555
:103090000C94471898E0899F90011124262B2093C7
:1030A0009B040E944F1680919B048595859585957C
:1030B0000C94481810929B0480E00C9448182091BE
:1030C0009B048095822380939B04982F977079F4BA
:1030D00030E0482F082E000C550B2417350739F027
:1030E0008595859585950E9470160C945A180895BB
:1030F00080E090E00E949D2A21E08D3E9E4F09F0E5
:1031000020E0822F089582E090E00C94952A83E0DD
:1031100090E00C94952A84E090E00C94952A682F16
:1031200084E090E00C94A32A87E090E00C94952A28
:10313000682F87E090E00C94A32AAB01BC018FE0DC
:1031400090E00C94B52AAB01BC0183E190E00C94B3
:10315000B52A60E070E0CB010C94A31860E070E049
:10316000CB010E949D180C94A9186DEE7EEF80E0B3
:1031700090E00E94C12A60E082E090E00E94A32AD1
:1031800060E083E090E00E94A32A109297041092DE
:1031900098041092990410929A0460E084E090E000
:1031A0000E94A32A60E085E090E00E94A32A60E0EC
:1031B00086E090E00E94A32A6FEF87E090E00E94F3
:1031C000A32A40E050E0BA0188E090E00E94B52ACE
:1031D00060E08DE090E00E94A32A40E050E0BA0158
:1031E00088E190E00E94B52A60E087E190E00E94CB
:1031F000A32A0C94AE180C94B518FC01329697E0F3
:1032000080E0915029F021912223D9F38F5FF9CFEB
:1032100008959C01FC0132969FEF80E04191461792
:1032200089F09F3F19F4411101C0982F8F5F8630BC
:10323000A9F79F3F39F0F901E90FF11D97FDFA95C4
:10324000628308950895FC01329608962081261322
:1032500001C010823196E817F907C1F708950C9460
:1032600009190C942319029626E0FC0111922A9563
:10327000E9F7089508950C943A190E943B1980913A
:10328000B505843049F11092A90420E488E190E06A
:103290000FB6F894A895809360000FBE209360004D
:1032A00080E00E94E3020E943B1983B7817F846023
:1032B00083BF83B7816083BF7894889583B78E7FFF
:1032C00083BF0FB6F894A8958091600088618093C1
:1032D0006000109260000FBE089508950895CF9386
:1032E0000E946D190E94FC060E946E19C0E08C2F8E
:1032F0000E949406892B29F4CF5FC430C1F780E087
:1033000001C081E0CF91089508950C9484190E9422
:1033100013120E94AD0C0E94E3020C9485191F92B7
:103320000F920FB60F9211248F939F93AF93BF9379
:103330008091A904811113C08091BE049091BF04B3
:10334000A091C004B091C1044196A11DB11D80930C
:10335000BE049093BF04A093C004B093C104BF9176
:10336000AF919F918F910F900FBE0F901F90189566
:1033700082E084BD93E095BD9AEF97BD80936E0087
:1033800008952FB7F8948091BE049091BF04A09146
:10339000C004B091C1042FBF0895CF92DF92EF9285
:1033A000FF920F931F932FB7F8944091BE04509152
:1033B000BF046091C0047091C1042FBF6A017B01FA
:1033C000EE24FF248C0120E030E0C016D106E20696
:1033D000F30610F4415051099A01281B390BC90119
:1033E0001F910F91FF90EF90DF90CF900895789408
:1033F0001F920F920FB60F9211248F939F93AF934A
:10340000BF938091BE049091BF04A091C004B0917D
:10341000C1040196A11DB11D8093BE049093BF0409
:10342000A093C004B093C104BF91AF919F918F91BD
:103430000F900FBE0F901F90189587E797E7909316
:103440000108809300089AE088E10FB6F894A895E7
:10345000809360000FBE90936000FFCF0E947818A9
:10346000811102C00E94FB180E9483188093A80457
:103470000E948B1890E09093C3048093C2040E9432
:103480008718682F70E080E090E00C94EE150F93A1
:103490001F938B3109F46FC058F58B3009F49CC031
:1034A00078F4863009F446C020F4853009F44CC025
:1034B0009AC0873009F451C0883009F48DC093C098
:1034C000803109F46BC068F48E3009F08CC08091B3
:1034D000A80482FB222720F991E0922790FB82F931
:1034E00053C0863109F478C0893109F475C07BC0B6
:1034F0008A32E9F060F4873209F470C028F48E3122
:1035000008F471C08D5155C08932F1F06CC083341C
:1035100050F48A3308F04CC0853309F45FC0883317
:1035200009F45AC060C0833409F458C05CC00E94DA
:10353000FB1852C08091A804817F8E7F8093A804DD
:1035400081E08093AA0450C00E9413120E94C60812
:103550000E94E5020E941D1A3FC08091A804982F86
:103560009095917090FB80F98093A804911134C0DC
:10357000897F877F10C08091A80481FB222720F9D2
:1035800091E0922790FB81F98093A804992321F17F
:103590008091A80481608093A8041EC08091A80433
:1035A00083FB222720F991E0922790FB83F9ECCF4F
:1035B000895341E050E060E070E08A019B0104C063
:1035C000000F111F221F331F8A95D2F7C901B801BE
:1035D0000E94EE150E94131281E006C061E070E0C7
:1035E00080E090E0F5CF80E01F910F91089580E09A
:1035F000089580E00895CF93C82F8091AA0488236E
:1036000019F0813031F02BC00E94C817823249F581
:1036100004C00E94C817823261F48C2F0E94F71AEE
:10362000811104C08C2F0E94471A17C081E090E0DE
:1036300014C08C2F0E94F91A81110EC0C43149F0B8
:1036400018F4CB3049F00FC0C93219F0C83321F05B
:103650000AC01092AA0407C081E0817006C01092CF
:10366000AA0480E002C080E0F8CFCF910895881FBF
:103670008827881F089591E0883F08F490E0892FFB
:103680000895982F907F903BF1F038F49039D9F05D
:10369000903AC9F09038C9F416C0903D49F018F43A
:1036A000903C31F012C0903E71F0903F19F00DC087
:1036B00082E00895815F8F3040F4E82FF0E0EB5610
:1036C000FC4F8081089583E0089580E00895FC0117
:1036D000738362830895FC01758F648F0895CF937F
:1036E000DF93EC011DA21FA21EA2BC01685D7F4FEB
:1036F00040EC88519F4F0E94901D1B821A821D82B0
:103700001C821F821E82198618861B861A861D86B9
:103710001C861F861E86198A188A1B8A1A8A1D8A89
:103720001C8A1F8A1E8A198E188E1B8E1A8E1D8E59
:103730001C8E1F8E1E8E19A218A2DF91CF910895A4
:10374000EF92FF920F931F93CF93DF93162F042FC7
:10375000EA0188519F4F7C019C2F901B911728F400
:103760006991C7010E94971DF7CFDF91CF911F91FB
:103770000F91FF90EF900895FC017183608308958D
:10378000FC0171A360A30895AF92BF92CF92DF9224
:10379000EF92FF920F931F93CF93DF9300D01F926E
:1037A000CDB7DEB77C016B01142FB22EA02EDC0149
:1037B00095968C9195978430F1F45A96ED91FC9101
:1037C0005B97309709F4C0C0CB01019763E070E0CC
:1037D0000E94672ACB01880F991F860F971F498384
:1037E000BA820B834C2D481B9E012F5F3F4FBC01BB
:1037F000C7010995B6C06230710509F452C0633043
:10380000710529F06130710509F099C080C0842FDD
:10381000807F803AF9F058F48038B1F0803909F0AF
:1038200093C0D7011496ED91FC9115972AC0803E64
:10383000B9F0803FD9F0803B09F086C0D7011296DD
:10384000ED91FC9113971DC0D7011696ED91FC9157
:10385000179717C0D7011896ED91FC91199711C0D1
:10386000D7011A96ED91FC911B970BC0423F09F0CE
:103870006BC0D7011C96ED91FC911D97309731F4E8
:1038800063C0309709F460C0123F21F42A2D4B2DFC
:1038900062EF04C02A2D4B2D612F6F70C70109956F
:1038A00060C0842F807F803D59F0803F79F0803C5C
:1038B00009F04AC0D7011E96ED91FC911F9718C0E0
:1038C000D7015096ED91FC91519712C0433F31F4CE
:1038D000D7015296ED91FC91539707C0413FA1F556
:1038E000D7015496ED91FC915597309739F42CC03F
:1038F000309751F1812F8D7F813F19F44B2D612F2E
:1039000003C04B2D612F6F70C70109952AC0842F0A
:103910000E943B1B882331F0D7015696ED91FC9114
:10392000579707C0163F81F4D7015896ED91FC9147
:103930005997309749F0612FC701099512C064303B
:10394000710510F0C12CD12CD7015C96ED91FC9142
:103950005D97309731F00A2D2B2D412FB601C7010D
:103960000995D7015E96ED91FC915F97309731F004
:103970000A2D2B2D412FB601C70109950F900F90ED
:103980000F90DF91CF911F910F91FF90EF90DF90FB
:10399000CF90BF90AF900895FF920F931F93CF9356
:1039A000DF93EC01162F862F0E943B1B882369F0C2
:1039B000FDA081E08DA300E020E0412F61E070E0F8
:1039C000CE010E94C41BFDA270C0812F0E94371B34
:1039D0004DA1882309F440C0443029F01AA381E0A6
:1039E00090E09FA38EA3812F0E94411B813031F074
:1039F00070F0823051F0833041F02AC08DA300E096
:103A000020E0412F61E070E01EC08DA34EC0103F4A
:103A1000B1F0173FE9F42EA13FA1C90163E070E0C6
:103A20000E94672AFE01E80FF91F12A3B9016F5F18
:103A30007F4F7FA36EA30CA12BA14AA104C084E0F9
:103A40008DA31AA329C0CE010E94C41B1DA22DC0A4
:103A50001DA21FA21EA229C0442339F12EA13FA1FD
:103A6000C90163E070E00E94672AFE01E80FF91FB8
:103A700012A3B9016F5F7F4F7FA36EA381309105C1
:103A800081F0029791F40CA12BA14AA1CE010E94D2
:103A9000C41B8DA1843049F081E090E09FA38EA3E8
:103AA00004C0423011F400E0EFCFDF91CF911F91BD
:103AB0000F91FF900895CF92DF92EF92FF920F93B4
:103AC0001F93CF93DF93EC01E8A1F9A1309709F0A0
:103AD00009956E0188EEC80ED11CC6010E94C91D51
:103AE000E12CF12C082F10E0E016F10680F460E0E4
:103AF000C6010E94DF1D682FCE010E94CC1C61E030
:103B0000C6010E94F11D8FEFE81AF80AEDCFDF9190
:103B1000CF911F910F91FF90EF90DF90CF9008957C
:103B2000FC014283748363831182108208951F9382
:103B3000CF93DF93EC01162F0E94131EE82F2981EB
:103B400030E0C90101964A81642F70E00E947B2A0F
:103B5000488150E08417950729F48E2F0E94161E85
:103B600080E013C08B819C81DC01A20FB31F1C93EA
:103B7000298130E0C90101966A8170E00E947B2AA8
:103B800089838E2F0E94161E81E0DF91CF911F91B5
:103B900008950F931F93CF938C010E94131EF80179
:103BA000C1812081C21718F4F8019281C90FC21B8C
:103BB0000E94161E8C2FCF911F910F910895FC012A
:103BC000808170E09B01280F311DC901628170E086
:103BD0000E947B2A0380F481E02DE80FF91F808189
:103BE00008950F931F93CF93DF931F92CDB7DEB746
:103BF0008C0169830E94131E482FF801808169811E
:103C0000262F30E0B901680F711DCB01628170E091
:103C10000E947B2A8083842F0F90DF91CF911F9188
:103C20000F910C94161E8FB7F89408958FBF0895C6
:103C300008950F931F936330710509F04CC0622FF4
:103C4000842F807F803849F1803909F044C06F7734
:103C500070E080E090E00E94532720E030E040E4F4
:103C600051E40E94DF269B01AC0160E070E080E03F
:103C700090E40E9475280F7710E023E015950795D2
:103C80002A95E1F72DEC3CEC42E851E40E9408282B
:103C9000A8011F910F910C948F096F7770E080E05D
:103CA00090E00E94532720E030E040E451E40E947D
:103CB000DF269B01AC0160E070E080E090E40E94B0
:103CC00075282DEC3CEC42E851E40E9408281F9135
:103CD0000F910C94F7084C3F21F41F910F910C9415
:103CE000C6081F910F9108950F931F93CF93DF93F1
:103CF000CDB7DEB727970FB6F894DEBF0FBECDBFA6
:103D00008C01CE0101960E941C21882309F18A8131
:103D10000E94411B682F8A818D838B818E838C81C9
:103D20008F8361110EC09981943041F0973031F04A
:103D3000963031F0953029F761E003C063E001C0AF
:103D400062E0AE014B5F5F4FC8010E94A01BD9CF5C
:103D500027960FB6F894DEBF0FBECDBFDF91CF918F
:103D60001F910F910895EF92FF920F93CF93DF93DE
:103D700000D000D000D0CDB7DEB77B014A832B83C3
:103D80000C83842F2E834D830E94411B2E814D81F5
:103D900081111BC082E0E816F10471F083E0E8169F
:103DA000F10421F0EA94EF28B9F40BC0073F11F4B5
:103DB00087E005C084E003C0273FE1F786E0898300
:103DC00007C0473FB9F785E0FACF42954F70498366
:103DD000CE0101960E94172126960FB6F894DEBFF9
:103DE0000FBECDBFDF91CF910F91FF90EF9008955F
:103DF00084EC94E00E946F1B63EB7EE184EC94E022
:103E00000E94BC1B64E77EE184EC94E00E94C01B2E
:103E100069E17EE184EC94E00E946B1B68E17EE145
:103E200084EC94E00C94671B2091B5052430D9F400
:103E30009B01FC0181818F708093E90040E050E09C
:103E400064E070E0C9010E94F32181110FC09091DC
:103E5000E800892F807295FD08C09091E8009E7758
:103E60009093E800089582E0089580E008952091FD
:103E7000B5052430A1F4FC0181818F708093E900A5
:103E80002091F3008091F20090E0922B892B49F071
:103E90008091E8008E778093E8000C94A12382E063
:103EA000089580E00895FC018091B505843059F4AF
:103EB00091819F709093E9008091E80080FF03C09A
:103EC000CF010C94371F08952091B505243011F0CF
:103ED00080E00895FC0186818F708093E9008091D5
:103EE000E80082FFF5CF8091E80085FFF1CFCB019C
:103EF00040E050E064E070E00E943E228091E800E3
:103F000085FD05C08091E8008B778093E80081E013
:103F100008958091B304089508950F931F93CF934C
:103F2000DF9300D01F92CDB7DEB78C010E94D6215F
:103F3000823011F0843021F584E089831B830A8369
:103F400082E08093E9008FEF9091E800815095FD29
:103F500006C095ED9A95F1F700008111F5CF80919B
:103F6000E80085FF0DC040E050E063E070E0CE0166
:103F700001960E94F3218091E8008E778093E800FB
:103F80000F900F900F90DF91CF911F910F91089597
:103F9000CF93DF9300D01F92CDB7DEB72091B50548
:103FA000243031F523E02983805891099B838A834B
:103FB00082E08093E9008FEF9091E800815095FDB9
:103FC00006C095ED9A95F1F700008111F5CF80912B
:103FD000E80085FF0DC040E050E063E070E0CE01F6
:103FE00001960E94F3218091E8008E778093E8008B
:103FF0000F900F900F90DF91CF910895CF93DF93A3
:10400000EC010E94D621823011F0843039F581E034
:104010008093E9008FEF9091E800815095FD06C0F4
:1040200095ED9A95F1F700008111F5CF8091E800A8
:1040300085FF14C040E050E068E070E0CE010E94CF
:10404000F3218091E8008E778093E80088E0FE01FC
:10405000ABEAB4E001900D928A95E1F7DF91CF9140
:1040600008958091B405811109C00E94D3230E9454
:1040700030248091E20084608093E20008951092E1
:10408000B4050895089508950C94871942E061ECF1
:1040900081E00E944D2342E261EC82E00E944D23C8
:1040A00042E361E883E00E944D2342E360E884E05C
:1040B0000C944D238091B705833009F460C030F42F
:1040C000813071F0823009F499C008958A3009F482
:1040D00085C08B3009F46BC0893009F0A7C020C0BF
:1040E0008091B605813A09F0A1C08091E800877FF0
:1040F0008093E8008091BA059091BB05892B21F44B
:1041000068E08BEA94E003C060E080E090E070E05B
:104110000E9489228091E8008B778093E8000895BF
:104120008091B605813209F081C08091BA059091E5
:10413000BB05029708F07AC08091E800877F8093E2
:10414000E8008091E80082FD05C08091B5058111ED
:10415000F8CF6CC02091F3008091F20090E0922B98
:10416000029729F48091F1008B7F813021F48091B6
:10417000F1008093B3048091E8008B7753C0809165
:10418000B605813A09F052C08091BA059091BB05FD
:10419000892B09F04BC08091E800877F8093E8006D
:1041A0008091E80080FFFCCF80915F0336C0809152
:1041B000B6058132D9F58091BA059091BB05892B5E
:1041C000A9F58091E800877F8093E8000E94822310
:1041D0008091B80580935F030C9413128091B6050B
:1041E000813221F58091E800877F8093E8000E946A
:1041F00082238091B9058093B40408958091B60517
:10420000813AA1F48091E800877F8093E800809153
:10421000E80080FFFCCF8091B4048093F10080918E
:10422000E8008E778093E8000C9482230895BC0107
:1042300089E493E00C94141FBC0189E493E00C948E
:10424000641F0E94F81E84B7877F84BF0FB6F8945E
:10425000A895809160008861809360001092600052
:104260000FBE80E880936100109261000E94FE0CF6
:104270000E94D3230E9430248091E20084608093C6
:10428000E20078940E94BF260E94060D85E593E027
:104290000E94A80C8091B505853069F40E943D19F3
:1042A0008091B3058823B1F30E946F19882391F39D
:1042B0000E94DD21EFCF0E940E0D89E493E00E9461
:1042C000531FE8CF0C946421292F33272330310565
:1042D000C9F064F42130310581F02230310509F054
:1042E0004CC08FE990E02EE633E04BC0213231051F
:1042F00021F12232310589F140C082E190E02DE0C8
:1043000034E03FC099278130910571F02CF4892B5E
:10431000A1F5EAE6F3E00DC08230910541F0039784
:1043200061F5ECE1F3E005C0E6E4F3E002C0E2E2AF
:10433000F3E0849190E09F0124C06115710541F084
:1043400061307105D1F489E090E029E933E019C0CA
:1043500089E090E020E833E014C06115710541F078
:104360006130710551F486E390E02FE134E009C03B
:1043700080E490E025E534E004C080E090E020E0B7
:1043800030E0FA013183208308950895CF93C82F38
:104390000E94C521C093B504CF9108958091B505C1
:1043A000843011F081E0089582E008958091B50491
:1043B000811102C00C94CE21089580E189BD82E173
:1043C00089BD09B400FEFDCF8091D8008F7D809318
:1043D000D8008091E00082608093E0008091E0004E
:1043E00081FDFCCF0895CF92DF92EF92FF920F9361
:1043F0001F93CF93DF93EC018B016A010E94A123ED
:10440000811133C0C114D10439F0F601808191814A
:10441000081B190BC80FD91FE12CF12C0115110530
:1044200019F18091E80085FD16C08091E8008E7733
:104430008093E800C114D10449F0F6018081918194
:10444000E80EF91EF182E08285E00FC00E94A123F0
:10445000882321F30AC089918093F100015011094A
:10446000FFEFEF1AFF0ADACF80E0DF91CF911F91C3
:104470000F91FF90EF90DF90CF900895CF92DF9251
:10448000EF92FF920F931F93CF93DF93EC018B0179
:104490006A010E94A123811133C0C114D10439F0F3
:1044A000F60180819181081B190BC80FD91FE12CDF
:1044B000F12C0115110519F18091E80085FD16C058
:1044C0008091E8008B778093E800C114D10449F013
:1044D000F60180819181E80EF91EF182E08285E08B
:1044E0000FC00E94A123882321F30AC08091F1000C
:1044F000899301501109FFEFEF1AFF0ADACF80E02C
:10450000DF91CF911F910F91FF90EF90DF90CF90AF
:1045100008952091BC053091BD052617370748F056
:104520006115710539F42091E8002E772093E80099
:1045300001C0B90140E061157105A9F12091B505EF
:10454000222309F443C0253009F442C02091E80039
:1045500023FD40C02091E80022FD32C02091E800F8
:1045600020FFE9CF4091F3002091F20030E0342B9E
:10457000FC01CF016115710559F02830310540F477
:1045800081918093F100615071092F5F3F4FF1CF0E
:1045900041E02830310509F040E02091E8002E7715
:1045A0002093E800C8CF4111C9CF0AC08091B5055A
:1045B000882361F0853061F08091E80083FD0AC0B6
:1045C0008091E80082FFF2CF80E0089582E00895B4
:1045D00083E0089581E008952091BC053091BD05E8
:1045E0002617370748F06115710539F42091E80066
:1045F0002E772093E80001C0B901FC0120E061158D
:10460000710591F18091B505882309F440C085308A
:1046100009F43FC08091E80083FD3DC08091E8002F
:1046200082FD2FC08091E80080FFE9CF2091F30048
:104630008091F20090E0922B6115710559F088305D
:10464000910540F424912093F10031966150710955
:104650000196F2CF21E0089709F020E08091E80070
:104660008E778093E800CBCF2111CCCF0AC0809108
:10467000B505882361F0853061F08091E80083FD05
:104680000AC08091E80082FFF2CF80E0089582E0C6
:10469000089583E0089581E00895982F973058F5A4
:1046A0009093E900981739F07091EC002091ED009B
:1046B0005091F00003C0242F762F50E021FF19C045
:1046C0003091EB003E7F3093EB003091ED003D7F69
:1046D0003093ED003091EB0031603093EB0070933C
:1046E000EC002093ED005093F0002091EE0027FFA6
:1046F00007C09F5FD3CF8F708093E90081E008955A
:1047000080E008958091B60587FF11C08091E80090
:1047100082FD05C08091B5058111F8CF11C080914F
:10472000E8008B770BC08091B505882349F0809114
:10473000E80080FFF8CF8091E8008E778093E80052
:1047400008952091E4003091E50095E64091EC0059
:10475000842F817040FF22C08091E80080FD1CC042
:104760008091B505882391F0853091F08091EB0020
:1047700085FD10C04091E4005091E50042175307B9
:1047800029F39A01915011F784E0089582E0089589
:1047900083E0089581E0089580E008954091E80065
:1047A00042FFDECF08950E9441240E944924E0EE9A
:1047B000F0E0808181608083E8EDF0E080818F7798
:1047C000808319BCA7EDB0E08C918E7F8C938081A3
:1047D0008F7E80831092B40508950F931F93CF931B
:1047E000DF930E9441240E944924C8EDD0E08881D3
:1047F0008F77888388818068888388818F7D88838C
:1048000019BC1092B5051092B1051092B305109223
:10481000B20500EE10E0F80180818B7F80838881F3
:104820008160888342E060E080E00E944D23E1EEF9
:10483000F0E080818E7F8083E2EEF0E08081816015
:104840008083808188608083F80180818E7F80836F
:10485000888180618883DF91CF911F910F910895A6
:10486000E8EDF0E080818F7E8083E7EDF0E08081ED
:104870008160808384E082BF81E08093B4050C94E2
:10488000ED23E8EDF0E080818E7F80831092E200DE
:1048900008951092DA001092E10008951F920F928D
:1048A0000FB60F9211242F933F934F935F936F9303
:1048B0007F938F939F93AF93BF93EF93FF938091D9
:1048C000E10082FF0BC08091E20082FF07C080916F
:1048D000E1008B7F8093E1000E94BE268091DA0088
:1048E00080FF1FC08091D80080FF1BC08091DA003C
:1048F0008E7F8093DA008091D90080FF0DC080E127
:1049000089BD82E189BD09B400FEFDCF81E08093BD
:10491000B5050E94312005C019BC1092B5050E9452
:104920003F208091E10080FF19C08091E20080FF6C
:1049300015C08091E2008E7F8093E2008091E200BA
:1049400080618093E2008091D80080628093D800DB
:1049500019BC85E08093B5050E9443208091E10059
:1049600084FF30C08091E20084FF2CC080E189BDCB
:1049700082E189BD09B400FEFDCF8091D8008F7D12
:104980008093D8008091E1008F7E8093E100809138
:10499000E2008F7E8093E2008091E200816080934C
:1049A000E2008091B105882311F084E007C0809176
:1049B000E30087FD02C081E001C083E08093B5057C
:1049C0000E9444208091E10083FF29C08091E20091
:1049D00083FF25C08091E100877F8093E10082E022
:1049E0008093B5051092B1058091E1008E7F809390
:1049F000E1008091E2008E7F8093E2008091E200EE
:104A000080618093E20042E060E080E00E944D23FC
:104A10008091F00088608093F0000E944220FF9116
:104A2000EF91BF91AF919F918F917F916F915F9126
:104A30004F913F912F910F900FBE0F901F9018959F
:104A40001F920F920FB60F9211242F933F934F9303
:104A50005F936F937F938F939F93AF93BF93CF9306
:104A6000DF93EF93FF93C091E900CF708091EC004A
:104A7000D82FD17080FDD0E81092E9008091F0002D
:104A8000877F8093F00078940E9464251092E9005B
:104A90008091F00088608093F000CD2BCF70C093A0
:104AA000E900FF91EF91DF91CF91BF91AF919F917D
:104AB0008F917F916F915F914F913F912F910F90C7
:104AC0000FBE0F901F9018951F93CF93DF93CDB714
:104AD000DEB7AA970FB6F894DEBF0FBECDBFE6EBE8
:104AE000F5E088E08E0F9091F10091938E13FBCF4B
:104AF0000E945A208091E80083FF28C18091B6056A
:104B00009091B705492F50E04A30510508F01EC179
:104B1000FA01E556FF4F0C948F2A803821F0823835
:104B200009F014C108C08091B2059091B305992392
:104B300089F082600FC08091BA058F70873008F0CD
:104B400005C18093E9008091EB0085FB882780F9FF
:104B50001092E9009091E800977F9093E80080938D
:104B6000F1001092F100D0C0282F2D7F09F0EEC087
:104B7000882319F0823061F0E9C08091B805813056
:104B800009F0E4C0933009F080E08093B3052EC0B3
:104B90008091B80581112AC08091BA058F702FEFDE
:104BA000280F263008F0D2C08093E9002091EB0056
:104BB00020FF1CC0933021F48091EB00806214C070
:104BC0009091EB0090619093EB0021E030E0A9011F
:104BD00002C0440F551F8A95E2F74093EA001092F5
:104BE000EA008091EB0088608093EB001092E9006E
:104BF0008091E800877F8093E8000E948223A6C00E
:104C00008111A4C01091B8051F778091E3008078CE
:104C1000812B8093E3008091E800877F8093E800F8
:104C20000E9482238091E80080FFFCCF8091E30006
:104C300080688093E300111102C082E001C083E02C
:104C40008093B50583C08058823008F07FC0809182
:104C5000B8059091B9058C3D53E0950779F583E04F
:104C60008A838AE289834FB7F894DE01139620E0A5
:104C70003EE051E2E32FF0E050935700E49120FF33
:104C800003C0E295EF703F5FEF708E2F90E0EA3047
:104C900010F0C79601C0C0968D939D932F5F24316D
:104CA00049F74FBF8091E800877F8093E8006AE270
:104CB00070E0CE0101960E94892215C06091BA056C
:104CC0007091BB05AE014F5F5F4F0E946221BC0136
:104CD000892BE1F19091E800977F9093E80089811A
:104CE0009A810E94EC228091E8008B778093E80003
:104CF0002DC0803859F58091E800877F8093E800C7
:104D00008091B1058093F1008091E8008E7773CF98
:104D100081111CC09091B8059230C0F48091E800D8
:104D2000877F8093E8009093B1050E948223809151
:104D3000B105811106C08091E30087FD02C081E0CA
:104D400001C084E08093B5050E9446208091E80070
:104D500083FF0AC08091E800877F8093E8008091FC
:104D6000EB0080628093EB00AA960FB6F894DEBF4A
:104D70000FBECDBFDF91CF911F9108950895CF93BE
:104D80008091B5058823A1F0C091E900CF70909182
:104D9000EC00892F817090FD80E8C82B1092E9000B
:104DA0008091E80083FD0E946425CF70C093E900E4
:104DB000CF9108950E948E2708F481E008950E9403
:104DC000F3260C94C9270E94C22758F00E94BB27E3
:104DD00040F029F45F3F29F00C94B22751110C9454
:104DE000FD270C94B8270E94DA2768F39923B1F3C2
:104DF000552391F3951B550BBB27AA276217730701
:104E0000840738F09F5F5F4F220F331F441FAA1F94
:104E1000A9F335D00E2E3AF0E0E832D09150504050
:104E2000E695001CCAF72BD0FE2F29D0660F771FFE
:104E3000881FBB1F261737074807AB07B0E809F0E4
:104E4000BB0B802DBF01FF2793585F4F3AF09E3F69
:104E5000510578F00C94B2270C94FD275F3FE4F3E2
:104E6000983ED4F3869577956795B795F7959F5FAC
:104E7000C9F7880F911D9695879597F90895E1E0F8
:104E8000660F771F881FBB1F621773078407BA0757
:104E900020F0621B730B840BBA0BEE1F88F7E095B2
:104EA0000895E89409C097FB3EF49095809570951D
:104EB00061957F4F8F4F9F4F9923A9F0F92F96E966
:104EC000BB279395F695879577956795B795F111DB
:104ED000F8CFFAF4BB0F11F460FF1BC06F5F7F4F78
:104EE0008F4F9F4F16C0882311F096E911C077238A
:104EF00021F09EE8872F762F05C0662371F096E893
:104F0000862F70E060E02AF09A95660F771F881F61
:104F1000DAF7880F9695879597F90895990F000805
:104F2000550FAA0BE0E8FEEF16161706E807F9077B
:104F3000C0F012161306E407F50798F0621B730B16
:104F4000840B950B39F40A2661F0232B242B252B97
:104F500021F408950A2609F4A140A6958FEF811D3A
:104F6000811D089597F99F6780E870E060E00895DB
:104F70009FEF80EC089500240A9416161706180671
:104F80000906089500240A9412161306140605064D
:104F90000895092E0394000C11F4882352F0BB0FDE
:104FA00040F4BF2B11F460FF04C06F5F7F4F8F4F41
:104FB0009F4F089557FD9058440F551F59F05F3F7C
:104FC00071F04795880F97FB991F61F09F3F79F02B
:104FD00087950895121613061406551FF2CF4695AD
:104FE000F1DF08C0161617061806991FF1CF86952F
:104FF0007105610508940895E894BB276627772713
:10500000CB0197F908950E948E2708F48FEF089539
:105010000E941B280C94C9270E94BB2738F00E94CD
:10502000C22720F0952311F00C94B2270C94B827D6
:1050300011240C94FD270E94DA2770F3959FC1F389
:10504000950F50E0551F629FF001729FBB27F00D36
:10505000B11D639FAA27F00DB11DAA1F649F66278B
:10506000B00DA11D661F829F2227B00DA11D621FDA
:10507000739FB00DA11D621F839FA00D611D221F94
:10508000749F3327A00D611D231F849F600D211D78
:10509000822F762F6A2F11249F5750409AF0F1F0FB
:1050A00088234AF0EE0FFF1FBB1F661F771F881F64
:1050B00091505040A9F79E3F510580F00C94B227C3
:1050C0000C94FD275F3FE4F3983ED4F386957795E3
:1050D0006795B795F795E7959F5FC1F7FE2B880F0A
:1050E000911D9695879597F90895FA01EE0FFF1F88
:1050F000309621053105A1F16115710561F4803803
:10510000BFE39B0749F168949038810561F08038CE
:10511000BFEF9B0741F099234AF5FF3FE1053105B9
:10512000210519F1E8940894E795D901AA2329F4F7
:10513000AB2FBE2FF85FD0F310C0FF5F70F4A695C1
:10514000E0F7F73950F019F0FF3A38F49F779F9362
:105150000DD00F9007FC9058089546F00C94B82796
:1051600060E070E080E89FE308954FE79F775F93EA
:105170004F933F932F930E9470292F913F914F910E
:105180005F910E9408280C94CD2829F416F00C9405
:10519000B2270C94FC270C94B8270E94E227A8F3AE
:1051A0009638A0F707F80F92E8942BE33AEA48EB19
:1051B0005FE70E941E280F920F920F924DB75EB7C5
:1051C0000F920E94B829EAE4F1E00E94FF284F9173
:1051D0005F91EF91FF91E595EE1FFF1F49F0FE579C
:1051E000E0684427EE0F441FFA95E1F74195550B0F
:1051F0000E9432290F9007FE0C9426290895DF9310
:10520000CF931F930F93FF92EF92DF927B018C015C
:10521000689406C0DA2EEF010E941B28FE01E89474
:10522000A5912591359145915591A6F3EF010E94E5
:10523000042AFE019701A801DA9469F7DF90EF9044
:10524000FF900F911F91CF91DF9108959B01AC01C9
:1052500060E070E080E89FE30C94DF260C94B227B6
:105260000C94592A0E94E227D8F39923C9F3940F8A
:10527000511DA3F39150504094F059F0882332F01F
:10528000660F771F881F91505040C1F79E3F510510
:105290002CF7880F911D9695879597F908955F3F94
:1052A000ACF0983E9CF0BB27869577956795B795AF
:1052B00008F4B1609395C1F7BB0F58F711F460FF84
:1052C000E8CF6F5F7F4F8F4F9F4FE3CF0C94FD2749
:1052D00016F00C94592A0C94B82768940C94B227B1
:1052E0000E94E227A8F39923C1F3AEF3DF93CF9393
:1052F0001F930F93FF92C92FDD2788232AF0219750
:10530000660F771F881FDAF720E030E040E85FEB98
:105310009FE3883920F0803E38F021968F770E94F5
:10532000ED29E2E7F1E004C00E94ED29EFE9F1E0A8
:105330000E94FF288B01BE01EC01FB2E6F57710903
:105340007595771F880B990B0E94532728E132E748
:1053500041E35FE30E941B28AF2D9801AE01FF904F
:105360000F911F91CF91DF910E94042A0C94C927BD
:10537000FA01DC01AA0FBB1F9B01AC01BF5728F447
:10538000222733274427507820C0B75190F4AB2F01
:105390000024469537952795011CA395D2F300204C
:1053A00071F0220F331F441FB395DAF30ED00C9423
:1053B000EC2961307105A0E88A07B94630F49B01F9
:1053C000AC016627772788279078309621F02083D4
:1053D00031834283538308955058BB27AA270E94E4
:1053E000042A0C94C9270E94BB2738F00E94C227C8
:1053F00020F039F49F3F19F426F40C94B8270EF4EA
:10540000E095E7FB0C94B227E92F0E94DA2758F3C6
:10541000BA17620773078407950720F079F4A6F599
:105420000C94FC270EF4E0950B2EBA2FA02D0B0147
:10543000B90190010C01CA01A0011124FF27591BD9
:1054400099F0593F50F4503E68F11A16F040A22FDF
:10545000232F342F4427585FF3CF46953795279550
:10546000A795F0405395C9F77EF41F16BA0B620B4F
:10547000730B840BBAF09150A1F0FF0FBB1F661F96
:10548000771F881FC2F70EC0BA0F621F731F841FD9
:1054900048F4879577956795B795F7959E3F08F0FF
:1054A000B0CF9395880F08F09927EE0F97958795C1
:1054B00008959F3F31F0915020F487957795679537
:1054C000B795880F911D9695879597F90895AA1B12
:1054D000BB1B51E107C0AA1FBB1FA617B70710F0DF
:1054E000A61BB70B881F991F5A95A9F78095909511
:1054F000BC01CD01089597FB072E16F4009407D048
:1055000077FD09D00E94672A07FC05D03EF49095EC
:1055100081959F4F0895709561957F4F0895EE0F87
:10552000FF1F0590F491E02D0994F999FECF92BDEB
:1055300081BDF89A992780B50895A8E1B0E042E0CE
:1055400050E00C94C92A262FF999FECF92BD81BD57
:10555000F89A019700B4021639F01FBA20BD0FB6B1
:10556000F894FA9AF99A0FBE08950396272F0E948D
:10557000A42A0E94A32A252F0E94A42A242F0C9437
:10558000A42A0196272F0E94A42A0C94A32ADC01A6
:10559000CB01FC01F999FECF06C0F2BDE1BDF89A3E
:1055A000319600B40D9241505040B8F70895F894E8
:0255B000FFCF2B
:1055B20048F176440000C04000005C440000C04056
:1055C20048F176440000C04000005C440000C04046
:1055D20000005C440000004100005C440000004107
:1055E20052D02445000000410000DC44000000418C
:1055F20052D0A4440000404100005C4400008041BD
:105602005C978A440000804152D0A444000080414B
:105612000000DC44000080410000DC440000004146
:1056220000005C440000004100005C4400000041B6
:105632000000DC440000004152D0A44400000041BC
:105642000000DC440000004152D0244500004041EB
:10565200640000DC44000000410AA7CF44000000BF
:10566200415CFFB8440000004152D0A44400000055
:10567200411FD59244000000415C978A440000001B
:105682004148F176440000004100005C4400000003
:105692004100005C440000004148F17644000000F3
:1056A200415C978A44000000411FD59244000000EB
:1056B2004152D0A444000000415CFFB84400000005
:1056C200410AA7CF44000000410000DC4400000072
:1056D200410000DC44000000410AA7CF4400000062
:1056E200415CFFB8440000004152D0A444000000D5
:1056F200411FD59244000000415C978A440000009B
:105702004148F176440000004100005C4400000082
:105712004100005C440000004148F1764400000072
:10572200415C978A44000000411FD592440000006A
:105732004152D0A444000000415CFFB84400000084
:10574200410AA7CF44000000410000DC44000000F1
:105752004100005C44000080411F15694400008044
:105762004148F176440000804100D082440000802C
:10577200415C978A4400008041A4D0244400008008
:105782004100005C44000080411FD592440000802B
:10579200415CFFC3440000804100000000000000A3
:1057A200005CFF4344000080411FD592440000800A
:1057B200410000DC440000804152D02445000080BA
:1057C20041000000000000000000005C4400008076
:1057D2004148F17644000080415C978A4400008091
:1057E200411FD592440000804152D0A44400008061
:1057F2004164000307000C9D040383400000010480
:105802004000000100891FFE1F8C1FC81F8D1F0151
:105812000002040507090B0C0E1011131517181AB4
:105822001C1D1F2123242628292B2D2F30323435ED
:1058320037393B9190946636323331F7F6F5F4926C
:1058420093973534C60203020000010001010101F1
:04585200010001014F
:00000001FF
